:100000000C942A000C9434000C9434000C943400AA
:100010000C9434000C9434000C9434000C94340090
:100020000C9434000C9434000C9434000C94340080
:100030000C9434000C9434000C9434000C94340070
:100040000C9434000C9434000C9434000C94340060
:100050000C94340011241FBECFE5D4E0DEBFCDBF29
:100060000E9436000C9483000C94000084B78068D2
:1000700084BF84B7806884BF1ABA8FEF84BB8BBB00
:1000800087E886B9A0EEF1EEE2EE78E064E052E0B7
:1000900041E0A7B9369A349BFECF85B1282F30E0D6
:1000A000F7B9369A349BFECF85B190E0E7B9369A1E
:1000B000349BFECFB5B12F38310514F045BBE9CFE5
:1000C0002438310544F4853891052CF08E3891059B
:1000D00014F455BBDECF8239910544F02538310543
:1000E0002CF02E38310511F065BBD3CF8438910543
:1000F00044F4253831052CF02E38310511F075BB4C
:0A010000C8CF15BAC6CFF894FFCFA0
:00000001FF
