:100000000C942A000C9434000C9434000C943400AA
:100010000C9434000C9434000C9434000C94340090
:100020000C9434000C9434000C9434000C94340080
:100030000C9434000C9434000C9434000C94340070
:100040000C9434000C9434000C9434000C94340060
:100050000C94340011241FBECFE5D4E0DEBFCDBF29
:100060000E944A000C949A000C94000018BA08955B
:100070008AE088BB089585E088BB089586E088BB48
:10008000089589E088BB089582E088BB089588E0E0
:1000900088BB089584B7806884BF84B7806884BFB4
:1000A0008FE087BB84B3807F84BB85B38F6085BBC3
:1000B00058E0BAE028EC30E0A4E075E042E061E00E
:1000C000989908C0999906C09A9904C09B9902C052
:1000D00018BAF6CF989B0AC068BB48BB88EE93E07D
:1000E000F9013197F1F70197D9F7EACF999B0AC047
:1000F00048BB58BB88EE93E0F9013197F1F70197BF
:10010000D9F7DECF9A9B0AC0A8BB78BB88EE93E0F4
:10011000F9013197F1F70197D9F7D2CF9B9BD0CF57
:1001200058BBB8BB88EE93E0F9013197F1F701971E
:08013000D9F7C6CFF894FFCF08
:00000001FF
